:0B02F2003F065B4F666D7D077F6F7756
:10021300060910011624100701080004130000004A
:1002230000041E00000000040F00000000011D0078
:03023300011C00AB
:1000AD0075A0FF1202E0D2AFE51964324518700D4C
:1000BD00F518F5197FA412029B8E1A8F1B0519E5F1
:1000CD001970020518D3E51B940AE51A9400500423
:1000DD00C2A28002D2A2E4FFFEFDFCAB21AA20A9A0
:1000ED001FA81EC312025B602CAF21AE20AD1FAC4A
:1000FD001EAB12AA11A910A80FC312025B6016AF96
:10010D00211202CC8F08E50824FE6007047006D288
:10011D00A08002C2A0852112852011851F10851E89
:10012D000F30B3077FC87E0012030830B3030200FF
:0D013D00B5E4FDFC7F05FE1201D60200B501
:0401D6008C228D23C7
:1001DA008E268F27C3E5279523E5226480F8E52636
:1001EA00648098402174F22527F58274023526F539
:1001FA0083E493F5807FA07E86120308E5271527FE
:08020A0070D2152680CEB2A4CB
:0102120022C9
:0A030800EF1F70011E144E70F72263
:1002CC00E4FEEF24196008241870067E0180027E7B
:0302DC0002AF0668
:0102DF0022FC
:03000B000202B43A
:1002B400C0E0C0D0E51DC394325002051D758CFC0E
:0802C400758A67D0D0D0E0324A
:0300030002000EEA
:10000E00C0E0C0D075D000C000C001C004C005C0A3
:10001E0006C007851D17751D00758CFC758A670552
:10002E001CE517C394324011751CFE75160075152C
:10003E00007514007513008055C3E51C6480948010
:10004E004034E51C648094A0502CE517C394024004
:10005E003DE47F01FEFDFC741F951CF9F812026C45
:10006E00E5164FF516E5154EF515E5144DF514E5A7
:10007E00134CF5138018C3E51C648094A0400F85C3
:10008E00162185152085141F85131E751C00D0079B
:0F009E00D006D005D004D001D000D0D0D0E032B1
:1002E000438901758CFC758A67D28CD2A9D288D2D9
:0202F000A82242
:0B02FD00C2B6D2B5D2B4D2B6C2B52250
:10027F00C2B6E4FEEFC4131313540124FF92B4EF7C
:0B028F0025E0FFC2B6D2B60EBE08E9A3
:01029A002241
:10023700E4FFFEC2B6FDFCEF25E0FFEE33FED2B6CB
:10024700C2B6A2B7E43342070DBD00010CED640C42
:030257004C70E404
:01025A002281
:10029B00C2B6C2B512027F7F06DFFED2B60000C225
:0802AB00B60000120237D2B5C3
:0102B3002228
:0300000002014AB0
:0C014A00787FE4F6D8FD75812702019152
:10025B00EB9FF5F0EA9E42F0E99D42F0E89C45F0F9
:01026B002270
:10026C00E8600FEFC333FFEE33FEED33FDEC33FCF0
:03027C00D8F12294
:100156000200ADE493A3F8E493A34003F68001F212
:1001660008DFF48029E493A3F85407240CC8C333AA
:10017600C4540F4420C8834004F456800146F6DF79
:10018600E4800B0102040810204080900213E47EF4
:10019600019360BCA3FF543F30E509541FFEE4936E
:1001A600A360010ECF54C025E060A840B8E493A335
:1001B600FAE493A3F8E493A3C8C582C8CAC583CA60
:1001C600F0A3C8C582C8CAC583CADFE9DEE780BE18
:0102360000C7
:00000001FF
