:030000000200AD4E
:0C00AD00787FE4F6D8FD7581170200F49E
:10020300010800040D0000000004140000000004B5
:0B0213000900000000011300011200B0
:1001390075A0EA120237D2AFE4FFFEFDFCAB17AAA5
:1001490016A915A814C31201DF6049AF17AE16AD81
:1001590015AC14AB0CAA0BA90AA809C31201DF60DC
:1001690033AF171201AB8F08E50824FE6014146041
:100179001514601614601714601824057016D2A09F
:100189008012D2A2800ED2A4800AC2A08006C2A286
:100199008002C2A485170C85160B85150A851409DA
:0201A90080963E
:1001AB00E4FEEF247B601C24E0602424DE601C242E
:1001BB00E0600C24F86010242070167E0180127E03
:1001CB0002800E7E03800A7E0480067E0580027EFE
:0301DB0006AF0666
:0101DE0022FE
:03000B0002021FCF
:10021F00C0E0C0D0E513C3943250020513758CFCB7
:08022F00758A67D0D0D0E032DF
:0300030002000EEA
:10000E00C0E0C0D075D000C000C001C004C005C0A3
:10001E0006C007851311751300758CFC758A67056C
:10002E0012E511C3943240117512FE751000750F52
:10003E0000750E00750D008055C3E5126480948026
:10004E004034E512648094A0502CE511C394024014
:10005E003DE47F01FEFDFC741F9512F9F81201F0CC
:10006E00E5104FF510E50F4EF50FE50E4DF50EE5CB
:10007E000D4CF50D8018C3E512648094A0400F85D9
:10008E001017850F16850E15850D14751200D007E5
:0F009E00D006D005D004D001D000D0D0D0E032B1
:10023700438901758CFC758A67D28CD2A9D288D282
:02024700A822EB
:1000B900020139E493A3F8E493A34003F68001F223
:1000C90008DFF48029E493A3F85407240CC8C33348
:1000D900C4540F4420C8834004F456800146F6DF17
:1000E900E4800B0102040810204080900203E47EA2
:1000F900019360BCA3FF543F30E509541FFEE4930C
:10010900A360010ECF54C025E060A840B8E493A3D2
:10011900FAE493A3F8E493A3C8C582C8CAC583CAFD
:10012900F0A3C8C582C8CAC583CADFE9DEE780BEB5
:01021E0000DF
:1001DF00EB9FF5F0EA9E42F0E99D42F0E89C45F076
:0101EF0022ED
:1001F000E8600FEFC333FFEE33FEED33FDEC33FC6D
:03020000D8F12210
:00000001FF
