:0300000002038375
:0C038300787FE4F6D8FD7581200203CAE3
:100722000A750A0A6C73720A0A640A0A0A0A0A0A2F
:010732000ABC
:10000E0001160001150048008000000000000000ED
:09001E0000011800011700C18067
:10047100E4F508F509F50A7590FFF5A0F580D2AF0E
:10048100C2B5C2B4C2B61206F71206B612040FEF15
:100491003395E0FE74222FF58274073EF583E493D1
:1004A100F509650A601CE509640A601630000DE56E
:1004B10009B473081206B612070D800620000385E1
:0704C100091785090A80C537
:10064600E4F5101207331206E1E4F510E510C39540
:10065600185024E51075F002A42400F9740035F052
:10066600FA7B0178117C007D007E007F021202C9B0
:0706760012067E051080D57D
:01067D00225A
:10002E00E4FFE51825E024FEF582E434FFF583E0D5
:10003E00F50EE51825E024FFF582E434FFF583E0A4
:10004E00F50FE517249C700302016A24F8606524FD
:10005E00F77003020117240360030201BCE51814B4
:10006E00FFEFD39400403BEF25E024FEF582E4340D
:10007E00FFF583E0FEEF25E02400F582E43400F581
:10008E0083EEF0EF25E024FFF582E434FFF583E004
:10009E00FEEF25E02401F582E43400F583EEF01F37
:1000AE0080BF900000E004F0E0640860030201BC31
:1000BE00F00201BCE51814FFEFD39400403BEF258E
:1000CE00E024FEF582E434FFF583E0FEEF25E02424
:1000DE0000F582E43400F583EEF0EF25E024FFF521
:1000EE0082E434FFF583E0FEEF25E02401F582E49F
:1000FE003400F583EEF01F80BF900000E014F0E0B6
:10010E00F460030201BC0201B9E51814FFEFD394A9
:10011E0000403BEF25E024FEF582E434FFF583E05A
:10012E00FEEF25E02400F582E43400F583EEF0EFD7
:10013E0025E024FFF582E434FFF583E0FEEF25E0B1
:10014E002401F582E43400F583EEF01F80BF9000A9
:10015E0001E004F0E064087055F08052E51814FFD9
:10016E00EFD39400403BEF25E024FEF582E434FF0C
:10017E00F583E0FEEF25E02400F582E43400F583FC
:10018E00EEF0EF25E024FFF582E434FFF583E0FE88
:10019E00EF25E02401F582E43400F583EEF01F80B4
:1001AE00BF900001E014F0E0B4FF037407F090007C
:1001BE0000E0B5132AA3E0B51425E51825E02400C8
:1001CE00F582E43400F583E50EF0E51825E0240110
:1001DE00F582E43400F583E50FF0051812051A12C6
:0B01EE000603EF600312000302064648
:10060300E4FFFE0EEEC395185038EE25E02400F506
:1006130082E43400F583E0FD900000E0B50519EEB7
:1006230025E02401F582E43400F583E0FD90000128
:10063300E0B505047D0180027D00AF05EF70030E78
:0206430080C273
:010645002292
:1006E10078117C007D007B007A0079137E007F0207
:0606F1001202C902067EA0
:10051A00751001E4FF12056BEF5407F51312056B12
:10052A00EF5407F514E4FFEFC39518502FEF25E0B9
:10053A002400F582E43400F583E0B51314EF25E0D6
:10054A002401F582E43400F583E0B514047E0180C9
:10055A00027E008E10E51070030F80CBE51070B597
:01056A00226E
:0A0733007F08900080E4F0A3DFFCD3
:01073D002299
:10067E00AE12EEFDC374079DFDE49400FC74802D54
:10068E00F58274003CF583E0FBC374079511FFF807
:10069E007401088002C333D8FC4BFF74802DF582A1
:0706AE0074003CF583EFF03E
:0106B5002222
:10040F00E4FE7590EFC4F8540FC868FFEEC454F0C3
:10041F0048FEE590540FFDEF4D7590DFC4F8540F73
:10042F00C868FFEEC454F048FEE590540FFDEF4D41
:10043F007590BFC4F8540FC868FFEEC454F048FE5F
:10044F00E590540FFDEF4D75907FC4F8540FC868B9
:10045F00FFEEC454F048FEE590540FFDEF4DFF0240
:02046F0002EF9A
:1002EF00750B10EF2481602F24C0603024E0603143
:1002FF0024F0603224F4601024FE60111460132483
:10030F00077028E4F50B8069750B018064750B028B
:10031F00805F750B03805A750B048055750B058034
:10032F0050750B06804B750B078046EE2481602FAE
:10033F0024C0603024E0603124F0603224F4601077
:10034F0024FE601114601324077026750B0880219A
:10035F00750B09801C750B0A8017750B0B801275B6
:10036F000B0C800D750B0D8008750B0E8003750B34
:03037F000FAF0BB2
:010382002258
:03000B000205B833
:1005B800C0E0C0F0C083C082C0D075D000C000C009
:1005C80001C002C003C004C005C006C007758A0088
:1005D800758C040515E515B40A0675150012002E6C
:1005E800D007D006D005D004D003D002D001D00067
:0B05F800D0D0D082D083D0F0D0E03211
:1006B6007518037513057514059000047403F0A3EB
:1006C600F090000204F0A314F09000007405F0A36B
:0B06D6007403F0751772D20002064694
:10070D005389F0438901E4F58A758C04C28DD28C2E
:05071D00D2A9C2002278
:05000300C28CD20022B6
:03002B000204C804
:1004C800C0E0C083C082C0D075D000C006C007C2DB
:1004D800CFE5167003D38001C392B4D2B6C37407B4
:1004E8009516FFE49400FE74802FF58274003EF5A3
:1004F80083E0F4F580D2B50516E516B40803751641
:1005080000C2B6C2B5D007D006D0D0D082D083D032
:02051800E032CF
:1006F700E4F5C9F5C875CCCD75CDF875CACD75CB00
:06070700F8D2CAD2AD22B7
:10038F00020471E493A3F8E493A34003F68001F20F
:10039F0008DFF48029E493A3F85407240CC8C3336F
:1003AF00C4540F4420C8834004F456800146F6DF3E
:1003BF00E4800B010204081020408090000EE47EC0
:1003CF00019360BCA3FF543F30E509541FFEE49333
:1003DF00A360010ECF54C025E060A840B8E493A3FA
:1003EF00FAE493A3F8E493A3C8C582C8CAC583CA25
:1003FF00F0A3C8C582C8CAC583CADFE9DEE780BEDD
:0100270000D8
:1001F900E709F608DFFA8046E709F208DFFA803EE8
:1002090088828C83E709F0A3DFFA8032E309F608D4
:10021900DFFA8078E309F208DFFA807088828C833C
:10022900E309F0A3DFFA806489828A83E0A3F608F0
:10023900DFFA805889828A83E0A3F208DFFA804CCA
:1002490080D280FA80C680D4806980F280338010A1
:1002590080A680EA809A80A880DA80E280CA80330A
:1002690089828A83ECFAE493A3C8C582C8CCC58382
:10027900CCF0A3C8C582C8CCC583CCDFE9DEE78052
:100289000D89828A83E493A3F608DFF9ECFAA9F0D1
:10029900EDFB2289828A83ECFAE0A3C8C582C8CC27
:1002A900C583CCF0A3C8C582C8CCC583CCDFEADE40
:1002B900E880DB89828A83E493A3F208DFF980CCA2
:1002C90088F0EF60010E4E60C388F0ED2402B4049B
:1002D9000050B9F582EB2402B4040050AF23234542
:0602E9008223900249731C
:10056B00AC19AD1AAE1BAF1C7810EC4D4E4F70048E
:10057B007CA57DA5C3EC13FCED13FDEE13FEEF1371
:10058B00FF5010EC64CCFCED644CFDEE644EFEEFC2
:10059B0064CEFFD8DF8C198D1A8E1B8F1CEE547F07
:0D05AB00FE228E198F1A74A5F51BF51C2277
:00000001FF
