:030000000200BB40
:0C00BB00787FE4F6D8FD75811F02010279
:0A02CA003F065B4F666D7D077F6FF6
:100277000108001009003F003F003F003F003F001A
:050287003F003F003FB5
:10000E001202541202AC12029630B250E519540F7D
:10001E009002CA93751700F518E519C4540F93751D
:10002E001500F516751300751440E51A540F9375E7
:10003E001100F512E51AC4540F93750F00F51075E3
:10004E000D00750E40E51B540F93750B00F50CE576
:10005E001BC4540F93750900F50A80AAE51F540FAF
:10006E009002CA93751700F518E51FC4540F9375C7
:10007E001500F516751300751440E51D540F937594
:10008E001100F512E51DC4540F93750F00F5107590
:10009E000D00750E40E51C540F93750B00F50CE525
:0D00AE001CC4540F93750900F50A020014DC
:1002AC00758902758CFE758AFED2A9D2AFD28C22CA
:03000B00020147A8
:10014700C0E0C083C082C0D075D000C000758000F9
:10015700E508B40800504D900165F828287302019E
:10016700A50201A102019902019502018D020189EF
:1001770002018102017DC2A28002D2A2C2A3C2A44F
:100187008022C2A28002D2A2D2A3C2A48016C2A297
:100197008002D2A2C2A3D2A4800AC2A28002D2A2A3
:1001A700D2A3D2A4E50825E02409F808E6F58005DE
:1001B70008E508D394074003750800D000D0D0D0D5
:0601C70082D083D0E0327B
:0E02BC0081838587898B8D80828486888A8CD9
:09028C00071900031607102424D1
:10021B00C2AFC2B500C2B600D2B500E4FEEF139276
:10022B00B4EFC313FFD2B600C2B6000EBE08EEE4A5
:10023B00FEED1392B4EDC313FDD2B600C2B6000EA1
:08024B00BE08EEC2B500D2AFFF
:010253002288
:1001CD00C2AFC2B500C2B600D2B500E4FDEF1392C6
:1001DD00B4EFC313FFD2B600C2B6000DBD08EE00DA
:1001ED00E4FDA2B4E433FFC43333335480FCEEC3D7
:1001FD00134CFED2B600C2B6000DBD08E5C2B50067
:0D020D00D2B600C2B400D2B400D2AFAF062A
:01021A0022C1
:10025400E4FD7F8E12021BE4FCEC9002C393FF7456
:10026400192CF8E6FD12021B0CBC07ED7D807F8E75
:0302740002021B68
:10029600E4FBEB9002BC93FF1201CD74192BF8A678
:0502A600070BBB07ED92
:0102AB002230
:1000C70002000EE493A3F8E493A34003F68001F241
:1000D70008DFF48029E493A3F85407240CC8C3333A
:1000E700C4540F4420C8834004F456800146F6DF09
:1000F700E4800B0102040810204080900277E47E20
:10010700019360BCA3FF543F30E509541FFEE493FD
:10011700A360010ECF54C025E060A840B8E493A3C4
:10012700FAE493A3F8E493A3C8C582C8CAC583CAEF
:10013700F0A3C8C582C8CAC583CADFE9DEE780BEA7
:010295000068
:00000001FF
